:02000002D0002C
:1040000000400D006C920D00000005000E0005013F
:0840100004019301000000000F
:10401800B48B0D0009480A49884208B505D0094AF9
:10402800824202D0121A02F0F5FF0748074A00211F
:10403800121A02F0FAFF014808BD00BF00E203208F
:10404800A0910D00A4E20320A8E20320F4E70320D6
:1040580070B501F03BFE074C074BE41AA408002595
:104068001E46A54204D056F8253098470135F8E792
:1040780070BD00BFA0910D0064910D0000F056B80E
:1040880008B500F0D7F9BDE8084001F0EDBD01F032
:104098006DBA01F06BBA0078B0FA80F04009704749
:1040A800012303707047000038B50B4D002404F15C
:1040B800CC00284401F0ECFA04F1B800284401F0DF
:1040C800E7FA04F1A8002844383C01F0E1FA14F1B9
:1040D800E00FECD138BD00BFACE2032010B5034BB4
:1040E8000360044600F04AFB204610BDD08B0D004B
:1040F80010B50446FFF7F2FF2046FFF7C8FF204639
:1041080010BD000010B5034B0360044600F01AFB15
:10411800204610BDE08B0D0010B50446FFF7F2FFF6
:104128002046FFF7B4FF204610BD0000F0B585B06B
:1041380001F0A6FE4FF4165101F092FE002001F0A6
:1041480091F80025044647F22F560027002001F079
:1041580089F8001B61EB05018F4208BF864207D32F
:1041680001F08EFE01F080FE10B901F0DFF9EDE7F5
:1041780001F086FE01F078FE01F082FE2449254C0C
:1041880001F0C7FB244800231A461946406801F08D
:104198007DF9684601F0D2F96946204601F009FB2D
:1041A800684601F075FA206802F082FF061F034690
:1041B800324605462146684601F04AFB69461748DB
:1041C80001F0F7FA684601F063FA01F059FE0A2295
:1041D800102101F0D7FB01F053FE0746206802F0DA
:1041E80067FF0A220146384601F0CCFB01F048FE81
:1041F8002B46324607462146684601F029FB0099BE
:10420800384601F086FB684601F042FA05B0F0BD79
:10421800E88B0D008CE3032040E50320C8E303206E
:1042280070B51F4E1F4D1324204602F039F802F0D6
:1042380031FB13A3D3E9002302F092FB12A3D3E9C5
:10424800002302F0B7FC02F083FE02F035FB10A356
:10425800D3E9002302F0D0F90FA3D3E9002302F039
:10426800A9FC02F075FE013CA4B20F2C286246F8A6
:10427800040B05F13805D7D170BD00BFAFF300803E
:104288006666666666660A400000000000FEAF408B
:10429800894160E5D022DB3F9A9999999999793FAC
:1042A800B0E30320ACE2032038B504462DED028BC1
:1042B8000D46B0EE408A00F03FFD29462046012217
:1042C80000F0AEFC20463A2100F04CFCB0EE480A63
:1042D800BDEC028B2046BDE8384000F039BD000037
:1042E800F8B5424C424E434D434F00F083FF4349DB
:1042F800204601F014FA314604F1100001F00FFADB
:104308004FF07E532362294604F1240001F007FA96
:104318004FF0804363633A4904F1380001F0FFF934
:10432800314604F1480001F0FAF9364BA3652946F5
:1043380004F15C0001F0F3F94FF08143E366324980
:1043480004F1700001F0EBF9314604F1800001F04E
:10435800E6F92E4BC4F89030294604F1940001F098
:10436800DEF92B4BC4F8A4302A4904F1A80001F067
:10437800D6F9314604F1B80001F0D1F9264BC4F85A
:10438800C830294604F1CC0001F0C9F94FF0824346
:10439800C4F8DC30214C2249224D234E224600200D
:1043A80001F0D8FF0021012001F054F81F4B002232
:1043B8001A705A804FF6FF729A80032001F042F873
:1043C8003946284601F0ABF92846194D22463146B0
:1043D80001F0C0FF3946284601F0A1F922463146CE
:1043E8002846BDE8F84001F0B5BF00BFACE20320A5
:1043F800208C0D00258C0D00B28D0D00198C0D0040
:104408002C8C0D0000004040338C0D000000A040B3
:104418000000C0403A8C0D000000E040A8E20320F4
:10442800B1400D008CE3032099560D00A8E303204A
:10443800C8E30320F0B5964C964DADF5737D00F0BA
:1044480009FFD4E900230021801A61EB0301002948
:1044580008BFB0F57A7F06D300F0FCFE0023636046
:10446800012320602B708C4C8C4F8D4E00F0F2FE97
:10447800D4E900230021801A61EB0301002908BF59
:10448800B0F5FA6F07D300F0E5FE0023636001235F
:1044980020603B7033702B7843B1824C23782BB16A
:1044A80000232370FFF7BCFE012323703B789BB1E8
:1044B8007D4C237883B1794A00231370237001F06F
:1044C800DFFC7A4901F012FA01F0DAFC784B19683E
:1044D80001F01FFA012323703378764D002B00F08A
:1044E800D2802B78002B00F0CE806D4A724C0023CE
:1044F800137017A94FF480720BA82B7000F020FBE3
:104508006E4B0B93142300934FF48072A2AB62A9F5
:1045180057A800F07DF96A4B57937D227B210BA8A1
:1045280000F02EFB02266749169607A801F036F917
:104538000BA800F001FC012263490BA800F070FBF6
:104548003A210BA800F00EFB012207990BA800F0F6
:1045580067FB07A801F09CF894ED080A5B490BA8D3
:10456800FFF7A2FE94ED0D0A59490BA8FFF79CFE30
:1045780094ED160A57490BA8FFF796FE94ED1B0A0F
:1045880055490BA8FFF790FE94ED240A53490BA850
:10459800FFF78AFE94ED290A51490BA8FFF784FE1C
:1045A80094ED320A4F490BA8FFF77EFE94ED370AC7
:1045B8004D490BA8FFF778FE0BA800F0F2FA01F0BE
:1045C8005FFC0C9B494A012101F0BDFA57A800F095
:1045D8001BF90C9C204602F06BFD2146024657A8A9
:1045E80000F0F4F857A800F0A2FD58B901F048FC13
:1045F8003F4901F08EF957A8FFF784FD0BA8FFF794
:104608006DFD42E001F03CFC3A4901F082F957A9FE
:1046180004A800F00DF92D4A04A907A800F06EFAC5
:1046280007A89FED350A00F07FF907A88DED030A6A
:1046380000F068F804A800F065F801F021FC2F4AA2
:10464800012101F080FA01F01BFC2D4901F04EF91F
:1046580001F016FC9DED030A044610EE100A02F064
:104668002BF941EC100B3146204601F069FA01F0B4
:1046780007FC224A012101F066FA57A8FFF742FD1C
:104688000BA8FFF72BFD01232B700DF5737DF0BDF3
:10469800C0E30320D9E30320A0E303209CE3032025
:1046A800D8E3032001E2032000E20320418C0D003F
:1046B8008CE3032002E20320ACE20320D08B0D0040
:1046C800E08B0D00C8E30320578C0D005D8C0D00B6
:1046D800608C0D00638C0D00668C0D00698C0D00DC
:1046E8006C8C0D006F8C0D00728C0D00758C0D009C
:1046F8009F8C0D00B18C0D0000000000B28D0D00E4
:10470800C38C0D00704710B50446FFF7C0FC204667
:1047180010BD000010B5054B0360037C04461BB9AF
:10472800406808B100F022FF204610BDF48C0D004F
:1047380010B50446FFF7EEFF2046FFF7A8FC204619
:1047480010BD000010B5074B0360037C04461BB97D
:10475800406908B100F00AFF2046FFF7DBFF20465A
:1047680010BD00BF448D0D0010B50446FFF7EAFFE9
:104778002046FFF78CFC204610BD000010B5034B07
:1047880003600446FFF7C6FF204610BD048D0D00E8
:1047980010B50446FFF7F2FF2046FFF778FC2046E5
:1047A80010BD38B5037C04460D460BB1002038BD5A
:1047B800406810B100F0E2FE02E0084600F0CEFECC
:1047C8000028F3D06060A560012038BD70B543684B
:1047D8000E4604461546C1687BB153188268934259
:1047E8000BD8E36860682A463146184402F012FC88
:1047F800E3681D44E560012070BD29442046FFF7A9
:10480800D0FF0028EDD170BD0023C36070470000C1
:1048180010B582600022C260012202744361034A1B
:10482800029B41600260C36110BD00BF448D0D0052
:104838008B694A6941609A42034B03602ABF00238F
:1048480082608360704700BFE48C0D0070B5136808
:104858009D68136803F1100414608669B4420AD293
:104868009B698C68A34201DA9D42F2DAA342CCBF6D
:104878000020012070BD002070BD2DE9F34702AD76
:104888009A4601F110030A9E45F8043D07460C4676
:1048980091464FF00008019BBA699A421ED999685F
:1048A800A26891421ADAB0450BD1C9F800302A46FD
:1048B80021463846FFF7CAFF18B1019BCAF80030F5
:1048C8000DE02A4621463846FFF7C0FF2A46214612
:1048D800384608F10108FFF7B9FFDCE7002002B00D
:1048E800BDE8F08770B5013B00244E688D68AD1BAC
:1048F800AC4207DA9C4205DA45682544AD5D15559A
:104908000134F2E70023135570BD1FB51446102378
:104918006A46FFF7E7FF6846002103F005FA012021
:1049280084ED000A04B010BD07B581688DED010A59
:1049380019B101AA4068FFF7E8FF9DED010A03B02D
:104948005DF804FB38B5044600680D4610B100F068
:1049580060FF07E0616829B1A368E268013B9A42F9
:1049680038BF8D54E3680133E36038BD7F2870B5E4
:104978000C4601D8C1B219E0B0F5006F4FEAA01596
:1049880000F03F0603D265F03F01C9B209E0010B10
:1049980041F0E0012046FFF7D5FF05F03F0141F067
:1049A80080012046FFF7CEFF46F080012046BDE893
:1049B8007040FFF7C7BF00002DE9FF414D688046F2
:1049C8000F4616460024B868854246DAD8F80430FF
:1049D800CCB3595D6E2903EB05020FD005D86229C7
:1049E8000AD066290BD10C2109E074290ED075294B
:1049F8000ED0722903D107E0082100E00A213046D1
:104A0800FFF7A0FF002426E00D21F8E70921F6E7CB
:104A18002B1D9842F6DD002302A812F8011F195435
:104A28000133042BF8D1002301AA0E498DF80C306C
:104A380000F0ACFD0128E5D13146BDF80400FFF7D0
:104A480095FF0535DEE7595D5C2903D03046FFF751
:104A580079FF00E001240135B5E7012004B0BDE885
:104A6800F08100BF138D0D007FB50C4606460C493A
:104A78001046154600F0A5FEA3686168591A013171
:104A8800284600F023FE00236A462146304600955A
:104A9800019302930393FFF78FFF04B070BD00BF2B
:104AA800B28D0D002DE9F04389B006460F4604A8E3
:104AB80011499046994600F032FE002500954B4674
:104AC80003AA39463046FFF7D8FE044668B104AA5F
:104AD80003993046FFF7C8FF044620B1414604A8B1
:104AE80000F0A4FE08B90135E8E704A800F0D0FDFD
:104AF800204609B0BDE8F083B28D0D0073B50D46B0
:104B080089680A4E044621B101AB6868FFF7CAFFFD
:104B180020B96B6863602660002303E06B686360FC
:104B2800019B26602046A36002B070BDE48C0D0096
:104B38000023C36043610376437680F82A307047C8
:104B4800002310B5C36001230374054B03604FF0C5
:104B5800FF3341608260C362FFF7EAFF10BD00BF08
:104B6800048D0D00C368826810B593423FBF426848
:104B78005C1CC460D15424BF012380F82A3010BDC6
:104B880038B54469651C082D09D800EB4403012495
:104B980045619C76DA76FFF7E5FF204638BD0020B0
:104BA80038BD10B54369044643B100EB4303597E51
:104BB80009B1FFF7D7FF6369013B6361A368E06848
:104BC800616898424FF000022ABF5B180A5403F844
:104BD800012C10BD70B50446C068A56866682D1A1A
:104BE800134630440A46294600F0D8FC85422DBFBA
:104BF800E368A368E360C01836BF0123E06084F867
:104C08002A3070BD0EB403B503AA52F8041B0192F2
:104C1800FFF7E0FF02B05DF804EB03B07047000057
:104C28002DE9F04104460E46174612B12221FFF73E
:104C380099FF0025715D06EB0508002971D0E2682F
:104C4800A3689A426DD20B0633D501F0F003E02B2E
:104C580017D198F8013003F0C002802A11D105F16C
:104C6800020816F8082002F0C000802809D102F0D6
:104C78003F029B0142EA013203F47C631A4392B279
:104C880011E001F0E003C02B46D105F1010816F848
:104C9800083003F0C002802A3ED1890101F4F8628D
:104CA80003F03F031A4323492046FFF7ABFF45466D
:104CB80035E00C2918D00BD8092921D00A2919D098
:104CC800082929D15C212046FFF74CFF622123E007
:104CD80022291BD05C2919D00D291DD15C21204621
:104CE800FFF740FF722117E05C212046FFF73AFFEB
:104CF800662111E05C212046FFF734FF6E210BE0AE
:104D08005C212046FFF72EFF742105E05C21204638
:104D1800FFF728FF98F800102046FFF723FF01351A
:104D280088E72FB120462221BDE8F041FFF71ABFDE
:104D3800BDE8F081188D0D00426900EB42031A7E30
:104D480012B100221A7670472C21FFF70BBF000022
:104D580037B5044610EE100AE56A002D0ADB01F0AB
:104D6800ABFD2A46CDE9000108492046FFF74AFF76
:104D780003B030BD01F0A0FD0B46054902462046B0
:104D880003B0BDE83040FFF73DBF00BF2A8D0D00DE
:104D98002F8D0D002DE9F04F44684FF0FF354FF08F
:104DA800030ED0F800C0944580F09E8111F80C8065
:104DB800B8F1000F00F09881B8F12C0F00F01681BF
:104DC80018D8B8F10D0F00F08B8106D8A8F10908A2
:104DD800B8F1010F40F284813DE1B8F1200F00F0F5
:104DE8007F81B8F1220F40F036810CF10109C0F83B
:104DF800009092E0B8F15D0F3CD007D8B8F13A0FB7
:104E080000F0F080B8F15B0F07D024E1B8F17B0F18
:104E180003D0B8F17D0F2DD01DE10134002B00F037
:104E28005F814768099EBE4240F27D8107F1010C0F
:104E3800C0F804C04FEA071C03EB0C0A0026CAF8A6
:104E48000450CAF80C60CAF8085087687E1C1FBF57
:104E580003EB0719D9F80C700137C9F80C70B8F1D1
:104E68007B0F14BF0227012703F80C700768CAF8E4
:104E78000470B7E0002B00F033814768B8F17D0F6C
:104E880007F1805808F1FF3814BF4FF0020A4FF0BD
:104E9800010A07F1FF3903EB0818B9F1000F19DB14
:104EA800D8F80470013710D0D8F808707E1C0CD1DF
:104EB80098F800B0D34540F0298187600CF10107CC
:104EC800C8F8087003EB091C11E009F1FF39A8F1D3
:104ED8001008E2E7B9F1FF3F40F0028116E109F15D
:104EE800FF39B9F1FF3FACF1100C00F0F980DCF8A4
:104EF80004700137F3D0DCF808700137EFD1C0F83F
:104F08000890EDE011F80870002F68D0222F09D022
:104F18005C2F26D0076801370760D0F8008042452B
:104F2800F0D85CE0002B00F0CE804768099EBE42B6
:104F380040F2F78007F1010C3F01C0F804C003EB11
:104F4800070C0026CCF80850CCF80450CCF80C60BC
:104F5800D0F8008003F807E0CCF80490CCF808807B
:104F6800B1E008F10107BA42D4D90760CF5D662FD6
:104F7800D0D008D82F2FCDD001D8222F07E05C2F12
:104F8800C8D0622F03E0722FC4D002D86E2F75D11B
:104F9800C0E7742FBED0752F70D108F102070760E3
:104FA8004FF0040AD0F80080424503D80768013F53
:104FB8000760AFE711F80870002FF7D0A7F1300BA2
:104FC800BBF1090F04D927F02007413F052F55D819
:104FD80008F10107BAF1010A0760E3D1E6E7C0F872
:104FE80000C09AE04768013F876079E0002B77D0DE
:104FF80087687E1C74D03F01DF5D013F012F6FD9A8
:10500800476807F1FF3803EB071CB8F1000F67DBAF
:105018001CF8107C013F012F0AD85CF80C7C013782
:1050280006D05CF8087C013702D1C0F8088057E048
:1050380008F1FF38ACF1100CE7E711F8087007B376
:10504800202F1ED010D8092F0AD2203F5E2F15D846
:1050580008F101070760D0F800804245EDD810E05C
:105068000A2F0ED90D2F07E03A2F0AD001D82C2F7E
:1050780002E05D2F05D07D2FE7D102E0C0F800C027
:1050880044E013B908F1FF371CE04768099EBE42A7
:1050980047D907F101083F01C0F8048003EB07086E
:1050A8000026C8F80850C8F80450C8F80C604FF03B
:1050B8000406D0F80090DE55C8F804C0C8F8089077
:1050C8000768013F076087687E1C04F1010407D068
:1050D80033B103EB071CDCF80C700137CCF80C700B
:1050E8000768013707605CE6A3B14268511E03EB0D
:1050F800021300290EDB53F80C2C013203D053F8AD
:10510800082C013209D00139103BF2E76FF0010099
:10511800BDE8F08F2046BDE8F08F6FF00200BDE8D3
:10512800F08FC0F800C04FF0FF30BDE8F08FF7B542
:105138004369044600F12006F3B10022026242628C
:105148004FF0FF328262C2690092C26841683046FD
:10515800FFF720FE431C09D1257C0DB1002033E068
:10516800606900F003FA6561E56105E00028F5DB98
:10517800636903EB001325E000254FF0FF37256234
:105188006562A76200952B46E26861683046FFF7C2
:1051980001FE0028E2DBE06113D0000100F0DEF937
:1051A800E26960610346009225626562A762E2686F
:1051B80061683046FFF7EEFD636903EB0010A061FC
:1051C80001E06369A361012003B0F0BD00F012B8EB
:1051D80000F010B808B5024B1B689B68019308BD26
:1051E8006802030008B5024B1B68DB68019308BD21
:1051F8006802030008B5024B1B681B68019308BDD1
:105208002C02030008B5024B1B685B68019308BDBC
:105218002C02030008B5024B1B681B6B019308BDE9
:105228002C02030008B5024B1B68DB69019308BD1B
:105238003002030008B5024B1B681B6A019308BDC6
:105248003002030008B5024B1B685B68019308BD78
:105258001802030008B5024B1B685B69019308BD7F
:105268001802030008B5024B1B68DB6D019308BDEB
:105278001802030008B5024B1B689B68019308BD20
:105288004802030008B5024B1B681B69019308BD5F
:105298004802030008B5024B1B685B69019308BD0F
:1052A8004802030008B5024B1B681B6B019308BD3D
:1052B8004802030008B5024B1B685B6C019308BDEC
:1052C8004802030008B5024B1B685B69019308BDDF
:1052D8006402030008B5024B1B681B68019308BDF4
:1052E8003C02030008B5024B1B68DB68019308BD4C
:1052F8003C02030008B5024B1B681B69019308BDFB
:105308003C02030008B5024B1B685B69019308BDAA
:105318003C02030008B5024B1B689B69019308BD5A
:105328003C02030008B5024B1B68DB69019308BD0A
:105338003C02030008B5024B1B681B6A019308BDB9
:105348003C02030008B5024B1B689B6A019308BD29
:105358003C02030008B5024B1B681B6A019308BD99
:105368002802030008B5024B1B685B6A019308BD5D
:105378002802030008B5024B1B689B6A019308BD0D
:105388002802030008B5024B1B68DB6A019308BDBD
:105398002802030008B5024B1B681B6B019308BD6C
:1053A8002802030008B5024B1B685B6B019308BD1C
:1053B8002802030008B5024B1B681B6C019308BD4B
:1053C8002802030008B5024B1B681B68019308BD3F
:1053D8004C02030008B5024B1B685B68019308BDCB
:1053E8004C02030008B5024B1B681B69019308BDFA
:1053F8004C02030008B5024B1B685B69019308BDAA
:105408004C02030008B5024B1B689B69019308BD59
:105418004C02030008B5024B1B68DB69019308BD09
:105428004C02030008B5024B1B681B6A019308BDB8
:105438004C02030008B5024B1B689B6A019308BD28
:105448004C02030008B5024B1B685B68019308BD5A
:105458002002030008B5024B1B68DB6A019308BDF4
:105468002002030008B5034B1B68D3F8883001936A
:1054780008BD00002002030008B5034B1B68D3F8E1
:105488009430019308BD00002002030008B5024BC8
:105498001B685B68019308BD4002030008B5024B16
:1054A8001B689B68019308BD4002030008B5024BC6
:1054B8001B68DB68019308BD4002030008B5024B76
:1054C8001B681B69019308BD4002030008B5024B25
:1054D8001B685B69019308BD4002030008B5024BD5
:1054E8001B689B69019308BD4002030008B5024B85
:1054F8001B68DB69019308BD4002030008B5024B35
:105508001B681B6A019308BD4002030008B5024BE3
:105518001B681B6B019308BD4002030008B5024BD2
:105528001B685B6B019308BD4002030008B5024B82
:105538001B689B68019308BD4402030008B5024B31
:105548001B68DB69019308BD4402030008B5024BE0
:105558001B68DB6B019308BD4402030008B5024BCE
:105568001B681B68019308BD1C02030008B5024BA9
:105578001B685B68019308BD1C02030008B5024B59
:105588001B689B68019308BD1C02030008B5024B09
:105598001B685B69019308BD1C02030008B5024B38
:1055A8001B685B6A019308BD1C02030008B5024B27
:1055B8001B681B6B019308BD1C02030000221146E7
:1055C8004068FFF79BBF002211464068FFF7A6BF5F
:1055D80000224068FFF79ABF002281F0010140686D
:1055E800FFF784BF00231A4619464068FFF776BFC5
:1055F80000231A4619464068FFF768BF0022114683
:105608004068FFF75BBF002211464068FFF746BFBE
:10561800002202214068FFF749BF00231A4640686C
:10562800FFF734BF024B03225A60024A1A607047E0
:10563800DCE30320548D0D00704710B50446FEF7D7
:1056480026FD204610BD000070B5084B03600446D7
:1056580000250E4640F80C5FFFF724FE3046267101
:10566800FFF7E0FDA560204670BD00BF888D0D00E6
:105678000079FFF7DFBD0000044B00204FF6FF72F2
:10568800187058809A80FFF7DDBE00BFE4E303205E
:1056980010B504460068FFF769FF204610BD10B535
:1056A8000446006808B1FFF761FF00232360A36088
:1056B800636010BD38B504460D4600680131FFF738
:1056C8005DFF10B184E82100012038BD10B50368E2
:1056D800044613B143688B4207D22046FFF7EAFF1E
:1056E80020B1A3680BB922681370012010BD70B5F2
:1056F8000E46114604461546FFF7E8FF18B920463E
:10570800FFF7CDFF09E02A463146A560206801F081
:1057180081FC2268A3680021D154204670BD38B5A9
:105728000023044603604360836003730D4639B168
:10573800084601F0BDFC294602462046FFF7D7FF80
:10574800204638BD38B5054600680C4660B16A6821
:105758008B689A4206D3096801F0A2FCA368AB6083
:1057680000230AE0FFF702FF23682B6063686B6081
:10577800A368AB60002323606360A36038BD8842E0
:1057880010B50B46044607D0096819B19A68FFF7A7
:10579800AEFF01E0FFF783FF204610BD10B50023E0
:1057A80004460360436083600373FFF7E8FF204605
:1057B80010BD884210B5044601D0FFF7C3FF20464C
:1057C80010BD38B505460C4641B1084601F070FCDD
:1057D800214602462846FFF78AFF01E0FFF75FFFF0
:1057E800284638BD70B504460E4609B9002070BD7C
:1057F8006AB18368D5182946FFF768FF0028F5D0F5
:105808002068A3683146184401F04AFCA5600120CD
:1058180070BD07B500238DF80410012201A98DF889
:105828000530FFF7DFFF03B05DF804FB08B58268B9
:105838000B4612B919B9012008BD11B903681878C7
:1058480002E0006801F022FCB0FA80F0400908BDCF
:105858002DE9F0419A420E461C46104988BF13466E
:105868001546074684BF25461C46FFF758FFB16812
:105878008D420FD88C4228BF0C463368002213F89B
:1058880004801A55316838462944FFF79AFF33686F
:1058980003F804803846BDE8F08100BFB28D0D00E2
:1058A800F8B506460D468F180024BD420CD0336863
:1058B80015F8011B9B6830469847002801DB044413
:1058C800F3E7002C08BF04462046F8BD70B505462E
:1058D8000C46084649B101F0EBFB2B68024621460D
:1058E8002846DB68BDE87040184770BD08B5FFF76B
:1058F800EDFF08BD03689B68184738B50D210546BC
:10590800FFF7F8FF0A2104462846FFF7F3FF204473
:1059180038BD38B50546FFF7D9FF04462846FFF7D6
:10592800ECFF204438BD30B58BB00B4600218DF814
:105938002410012A98BF0A220DF12304B3FBF2F5C3
:1059480005FB123303F0FF03092B94BF30333733C1
:10595800DBB2214604F801392B46002DEED1FFF7C2
:10596800B5FF0BB030BD10B42AB903685DF8044B1D
:105978009B68C9B21847D2B25DF8044BFFF7D3BF92
:10598800FFF7F1BF38B50546FFF7EDFF0446284697
:10599800FFF7B3FF204438BD2DE9F04107460E4616
:1059A80015462AB90368C9B29B68BDE8F041184793
:1059B8000A2A02D1002901DA04E0D2B2BDE8F04196
:1059C800FFF7B1BF2D21FFF795FF2A460446714224
:1059D8003846FFF7A8FF2044BDE8F0812DE9F047DD
:1059E80057EC106B82460D4610EE102A3B4610EE1F
:1059F800100A394601F04EFA08B1484912E027F07A
:105A080000494FF0FF32464B3046494601F042FA12
:105A180068B94FF0FF32424B3046494601F01CFA54
:105A280028B940495046FFF751FFBDE8F0874FF0CD
:105A380060423D4B3046394601F022FA08B13B49F5
:105A4800F0E74FF060423A4B3046394601F0FAF938
:105A58000028F4D1002200233046394601F0F2F93B
:105A680040B12D215046FFF745FF07F1004304469A
:105A78001F4600E004462F494FF0000800205FFA57
:105A880088F39D4206D900222B4B01F093F808F1C8
:105A98000108F4E732463B4600F0B0FD0F460646E3
:105AA80001F036FA0A22014680465046FFF73BFFCE
:105AB80004447DB3404600F0DDFE02460B46304606
:105AC800394600F099FD06460F4650461B49FFF738
:105AD800FDFE0444184B00223046394600F040FFD2
:105AE8000F46064601F0ECF90A2201468046504668
:105AF800FFF752FF0444404600F0CCFE02460B4636
:105B08003046394600F078FD013D15F0FF050646A0
:105B18000F46DFD12046BDE8F08700BF908D0D000D
:105B2800FFFFEF7F9A8D0D00FFFFEF41948D0D0071
:105B3800FFFFEFC10000E03F00002440988D0D00FA
:105B4800C9B2FFF74BBF0CB42DE9F04387B000AFE3
:105B580007F13804054654F8049B3C600E4623467A
:105B68004A461421381DFFF719FD132805D8391D99
:105B78002846FFF7ABFE044613E000F1080323F0C4
:105B88000703E846ADEB030D411C23464A46684629
:105B98003C60FFF703FD69462846FFF797FE044679
:105BA800C5461EB12846FFF7A8FE044420461C3708
:105BB800BD46BDE8F04302B070470000014B024A01
:105BC8001A607047ECE30320518E0D00024B1A68EF
:105BD800024B1A60704700BF04E20320F0E3032081
:105BE80010B58368044613B103220146984720463E
:105BF80010BD10B50446FFF7F3FF204610BD0000A6
:105C08000348044A04490023836000F0A3BB00BF93
:105C1800F4E30320A8E20320FB5B0D0008B50F4B5B
:105C280033B100F02DF903681B69984700280DDC93
:105C38000B4B33B100F08EF903681B6998470028B5
:105C480007DC084B43B1AFF3008008BDAFF3008019
:105C5800EEE7AFF30080F4E708BD00BF00000000E6
:105C6800000000000000000008B5FFF7D7FFFFF7AD
:105C7800F1FA014B186008BD38E7032007B5002387
:105C880000931A466FF07701FFF7F6FB03B05DF853
:105C980004FB000007B543880A2B08D0502B09D114
:105CA800094B1B683BB103B05DF804EB1847FFF7DD
:105CB800E5FF06E0002300931A466FF07701FFF72F
:105CC800DBFB03B05DF804FB04E4032010B5FFF729
:105CD800B9FA044601F0B2F9074B13B12046AFF305
:105CE800008000210448FFF731FC00210348BDE88B
:105CF8001040FFF7B7BB00BF000000009D5C0D001F
:105D0800704710B50446FEF7C2F9204610BDF0B53D
:105D1800037D062B8DB00E4600F104074FF00004FA
:105D280002D000F1080518E00CAD394605F8304DF1
:105D38002F232A460A20FFF7C5FA284601F0B8F9AA
:105D480033680246DB682946304698470FE024B19D
:105D58002E213046FFF7CEFD044415F8011D0A2216
:105D68003046FFF70DFEBD420444F0D120460DB089
:105D7800F0BD000010B5054B0446112240F8043B65
:105D8800002101F052F9204610BD00BFAC8E0D0075
:105D98000346074A10B543F8042B01F1100251F8E5
:105DA800044B43F8044B9142F9D10A781A7010BD9C
:105DB800AC8E0D0010B59DF8084044EA032343EA71
:105DC800024242EA016104234160037510BD37B500
:105DD8000D788B784A78C97800912946FFF7EAFF51
:105DE80003B030BD4174704770470021007CFFF755
:105DF80009BB0121007CFFF705BB007CFFF7FABA5D
:105E0800007CFFF7EFBA38B50446007C0D46FFF773
:105E1800F1FA002801DC607C20B12946207CFFF7DC
:105E2800F9FA012038BD007CFFF7FCBA10B504462A
:105E3800FEF72DF9204610BD10B504460023636017
:105E48004FF47A73A360054B23600123084621743D
:105E580063741146FFF7B6FA204610BDC08E0D00D8
:105E68000022007CFFF7B6BA007CFFF7E3BA10B552
:105E780014220446002101F0D8F8204610BD000085
:105E880030B50E4D87B001A8FFF7F1FF296811F072
:105E9800010410D12846FEF7FEF860B101AA214698
:105EA8000748FFF7C9FF2846FEF7FAF8054A0649EA
:105EB800034800F04FFA024807B030BD08E4032059
:105EC8000CE40320A8E20320F15D0D007047417443
:105ED8007047007CFFF736BA007CFFF70BBA007CEE
:105EE800FFF718BA007CFFF70DBA007CFFF71ABA63
:105EF80010B50446FEF7CBF8204610BD70B5457CBA
:105F080004460E4625B9007CFFF71CFA002805DD7B
:105F18003146207CBDE87040FFF7E4B9284670BDE3
:105F280010B5044608461146002262604FF47A72A2
:105F3800A260054A22600122207462741A46FFF7A3
:105F4800C9F9204610BD00BFF08E0D00007CFFF798
:105F5800F1B9000038B50C4D296811F0010411D1D0
:105F68002846FEF798F868B1084A094B09482146BF
:105F7800FFF7D6FF2846FEF793F8074A0749054872
:105F880000F0E8F9034838BDB8E40320BCE4032076
:105F980034E4032020E40320A8E20320D55E0D00AA
:105FA8007047F8B5064615460C468F18BC4206D011
:105FB800336814F8011B9B6830469847F6E7284673
:105FC800F8BD0022007CFFF7C5B90021007CFFF76F
:105FD800C9B90021007CFFF7CDB90021007CFFF78B
:105FE800D1B90021007CFFF7D5B910B50446FEF7FA
:105FF8004EF8204610BD000010B504464FF47A73E1
:106008000846A3600021044B207461602360FFF7F9
:10601800D1F9204610BD00BF208F0D000021007C63
:10602800FFF7C0B9002211464068FFF767BA00229F
:1060380011464068FFF772BA00224068FFF766BA57
:10604800002281F001014068FFF750BA00231A4688
:1060580019464068FFF742BA00231A4619464068B5
:10606800FFF734BA002211464068FFF727BA00222A
:1060780011464068FFF712BA002202214068FFF774
:1060880015BA00231A464068FFF700BA10B1036832
:106098005B681847704738B504460068D0B1FFF709
:1060A800E9F8B8B9237C1BB9206808B1FFF7EAF80A
:1060B800656855B1AB681BB1032229462846984745
:1060C8002846FDF7E4FF002363602068FFF7E2F845
:1060D8000023236038BD000038B50B4B036004462D
:1060E800D0F8CC0108B1FDF7D4FFD4F8C4512DB1D4
:1060F8002846FFF7D0FF2846FDF7C9FFA06808B17A
:10610800FFF7C4FF204638BD488F0D0038B50D4C49
:106118000D4B23600025022304F5E4706360A5603D
:10612800C4F8C451C4F8C851FFF7C4F8074BC4F801
:10613800CC5123602046064A0649BDE8384000F0A5
:1061480009B900BF40E503207C8F0D00488F0D0082
:10615800A8E20320E1600D0000231A464068FFF71B
:1061680095B9002202214068FFF7A0B90022114624
:106178004068FFF793B9002211464068FFF79EB9BF
:1061880000231A4619464068FFF7A0B900231A46AB
:1061980019464068FFF7A2B9002281F00101406862
:1061A800FFF7A4B900224068FFF7B0B900221146F2
:1061B8004068FFF7B3B9002211464068FFF79EB95F
:1061C80070B58CB014460646FFF7D4FD0CAB002220
:1061D800114643F8302D2046FFF704F8014658BB16
:1061E800009B4BB35A68022A0ED00A2A24D15C6954
:1061F800112201A800F019FF06238DF8143001AD13
:1062080004F10803183405E0596930460431FFF7F2
:10621800DEFD11E0186859682A4603C20833A34214
:106228001546F7D101A906A807ADFFF7B1FD0FCDB7
:10623800341D0FC42B6823700098FEF7CBFF30463F
:106248000CB070BD024B034A1A6000225A607047B6
:1062580010E703207C8F0D0010B504460F48FFF7A8
:1062680007FA28B1A4F10B03022B01D8002010BDB6
:1062780000F050F8FFF7D2FE08B1012CF6D9FFF76D
:1062880069FEFFF763FE18B1A4F10903012BEDD9EC
:106298001E2C8CBF0020012010BD00BF18E7032072
:1062A8000D2810B504469CBF0E34A4B22046FFF753
:1062B800D3FF50B103212046FEF7A4FF032804D1E1
:1062C8002046BDE81040FEF7A5BF002010BD000025
:1062D80070B50C4C0C4E0D4D00212046FFF7B4F95B
:1062E80020460B4C3246294600F034F8012120465E
:1062F800FFF7AAF9324629462046BDE8704000F06B
:1063080029B800BF18E70320A8E2032041560D0072
:1063180028E7032038B50B4D296811F001040FD187
:106328002846FDF7B8FE58B121460748FFF764FE36
:106338002846FDF7B5FE054A0549034800F00AF866
:10634800014838BD3CE7032040E70320A8E20320CA
:10635800A95F0D000B460146184600F049BE000033
:10636800184B1A68D1075CBF01221A60164B1A68CD
:10637800D2075CBF01221A60144B1A68D0075CBFB1
:1063880001221A60124B1A68D1075CBF01221A60F9
:10639800104B1A68D2075CBF01221A600E4B1A68AC
:1063A800D0075CBF01221A600C4B1A68D1075CBF8A
:1063B80001221A600A4B1A68D2075CBF01221A60D0
:1063C800704700BF70E703206CE7032068E70320ED
:1063D80064E7032060E703205CE7032058E7032015
:1063E80054E70320244B1A68D0075CBF01221A60C7
:1063F800224B1A68D1075CBF01221A60204B1A6829
:10640800D2075CBF01221A601E4B1A68D0075CBF16
:1064180001221A601C4B1A68D1075CBF01221A605E
:106428001A4B1A68D2075CBF01221A60184B1A6807
:10643800D0075CBF01221A60164B1A68D1075CBFEF
:1064480001221A60144B1A68D2075CBF01221A6035
:10645800124B1A68D0075CBF01221A60104B1A68E9
:10646800D1075CBF01221A600E4B1A68D2075CBFC5
:1064780001221A60704700BFA0E703209CE70320B1
:1064880098E7032094E7032090E703208CE7032094
:1064980088E7032084E7032080E703207CE70320C4
:1064A80078E7032074E70320244B1A68D0075CBF01
:1064B80001221A60224B1A68D1075CBF01221A60B8
:1064C800204B1A68D2075CBF01221A601E4B1A685B
:1064D800D0075CBF01221A601C4B1A68D1075CBF49
:1064E80001221A601A4B1A68D2075CBF01221A608F
:1064F800184B1A68D0075CBF01221A60164B1A683D
:10650800D1075CBF01221A60144B1A68D2075CBF1E
:1065180001221A60124B1A68D0075CBF01221A6068
:10652800104B1A68D1075CBF01221A600E4B1A681B
:10653800D2075CBF01221A60704700BFD0E7032072
:10654800CCE70320C8E70320C4E70320C0E7032003
:10655800BCE70320B8E70320B4E70320B0E7032033
:10656800ACE70320A8E70320A4E70320184B1A6828
:10657800D1075CBF01221A60164B1A68D2075CBFAC
:1065880001221A60144B1A68D0075CBF01221A60F6
:10659800124B1A68D1075CBF01221A60104B1A68A7
:1065A800D2075CBF01221A600E4B1A68D0075CBF85
:1065B80001221A600C4B1A68D1075CBF01221A60CD
:1065C8000A4B1A68D2075CBF01221A60704700BFE5
:1065D800F0E70320ECE70320E8E70320E4E70320E3
:1065E800E0E70320DCE70320D8E70320D4E7032013
:1065F80081F0004102E000BF83F0004330B54FEA6C
:1066080041044FEA430594EA050F08BF90EA020FD8
:106618001FBF54EA000C55EA020C7FEA645C7FEA6B
:10662800655C00F0E2804FEA5454D4EB5555B8BF8E
:106638006D420CDD2C4480EA020281EA030382EAFF
:10664800000083EA010180EA020281EA0303362D91
:1066580088BF30BD11F0004F4FEA01314FF4801C64
:106668004CEA113102D0404261EB410113F0004F76
:106678004FEA03334CEA133302D0524263EB43032D
:1066880094EA050F00F0A780A4F10104D5F1200ECB
:106698000DDB02FA0EFC22FA05F2801841F1000126
:1066A80003FA0EF2801843FA05F359410EE0A5F1FA
:1066B80020050EF1200E012A03FA0EFC28BF4CF02B
:1066C800020C43FA05F3C01851EBE37101F00045E1
:1066D80007D54FF0000EDCF1000C7EEB00006EEBEE
:1066E8000101B1F5801F1BD3B1F5001F0CD3490878
:1066F8005FEA30004FEA3C0C04F101044FEA4452CF
:1067080012F5800F80F09A80BCF1004F08BF5FEA55
:10671800500C50F1000041EB045141EA050130BD35
:106728005FEA4C0C404141EB010111F4801FA4F1D8
:106738000104E9D191F0000F04BF01460020B1FA2D
:1067480081F308BF2033A3F10B03B3F120020CDA65
:106758000C3208DD02F1140CC2F10C0201FA0CF043
:1067680021FA02F10CE002F11402D8BFC2F1200CA8
:1067780001FA02F120FA0CFCDCBF41EA0C0190405E
:10678800E41AA2BF01EB0451294330BD6FEA0404A7
:106798001F3C1CDA0C340EDC04F11404C4F1200292
:1067A80020FA04F001FA02F340EA030021FA04F3A4
:1067B80045EA030130BDC4F10C04C4F1200220FAFB
:1067C80002F001FA04F340EA0300294630BD21FA39
:1067D80004F0294630BD94F0000F83F4801306BFFF
:1067E80081F480110134013D4EE77FEA645C18BFF3
:1067F8007FEA655C29D094EA050F08BF90EA020F8A
:1068080005D054EA000C04BF1946104630BD91EA81
:10681800030F1EBF0021002030BD5FEA545C05D184
:106828004000494128BF41F0004130BD14F58004C3
:106838003CBF01F5801130BD01F0004545F0FE4137
:1068480041F470014FF0000030BD7FEA645C1ABF6C
:10685800194610467FEA655C1CBF0B46024650EAA3
:10686800013406BF52EA033591EA030F41F40021CF
:1068780030BD00BF90F0000F04BF0021704730B555
:106888004FF4806404F132044FF000054FF000012A
:1068980050E700BF90F0000F04BF0021704730B5EB
:1068A8004FF4806404F1320410F0004548BF4042C0
:1068B8004FF000013EE700BF42004FEAE2014FEA15
:1068C80031014FEA02701FBF12F07F4393F07F4FF0
:1068D80081F06051704792F0000F14BF93F07F4F22
:1068E800704730B54FF4607401F0004521F0004165
:1068F80020E700BF50EA010208BF704730B54FF0EB
:1069080000050AE050EA010208BF704730B511F0EF
:10691800004502D5404261EB41014FF4806404F127
:1069280032045FEA915C3FF4DCAE4FF003025FEAA9
:10693800DC0C18BF03325FEADC0C18BF033202EB31
:10694800DC02C2F1200300FA03FC20FA02F001FA8B
:1069580003FE40EA0E0021FA02F11444C1E600BF2A
:1069680070B54FF0FF0C4CF4E06C1CEA11541DBFDD
:106978001CEA135594EA0C0F95EA0C0F00F0DEF8A8
:106988002C4481EA030621EA4C5123EA4C5350EA8D
:10699800013518BF52EA033541F4801143F48013DE
:1069A80038D0A0FB02CE4FF00005E1FB02E506F06F
:1069B8000042E0FB03E54FF00006E1FB03569CF0C4
:1069C800000F18BF4EF0010EA4F1FF04B6F5007FCA
:1069D80064F5407404D25FEA4E0E6D4146EB06063C
:1069E80042EAC62141EA55514FEAC52040EA5E50C5
:1069F8004FEACE2EB4F1FD0C88BFBCF5E06F1ED86F
:106A0800BEF1004F08BF5FEA500E50F1000041EBA5
:106A1800045170BD06F0004646EA010140EA020052
:106A280081EA0301B4EB5C04C2BFD4EB0C0541EA74
:106A3800045170BD41F480114FF0000E013C00F389
:106A4800AB8014F1360FDEBF002001F0004170BDAD
:106A5800C4F10004203C35DA0C341BDC04F11404C6
:106A6800C4F1200500FA05F320FA04F001FA05F252
:106A780040EA020001F0004221F0004110EBD3701F
:106A880021FA04F642EB06015EEA430E08BF20EA4B
:106A9800D37070BDC4F10C04C4F1200500FA04F3EE
:106AA80020FA05F001FA04F240EA020001F0004180
:106AB80010EBD37041F100015EEA430E08BF20EAF3
:106AC800D37070BDC4F1200500FA05F24EEA020E3B
:106AD80020FA04F301FA05F243EA020321FA04F06A
:106AE80001F0004121FA04F220EA020000EBD37021
:106AF8005EEA430E08BF20EAD37070BD94F0000F21
:106B08000FD101F00046400041EB010111F4801F54
:106B180008BF013CF7D041EA060195F0000F18BF05
:106B2800704703F00046520043EB030313F4801F41
:106B380008BF013DF7D043EA0603704794EA0C0FFB
:106B48000CEA135518BF95EA0C0F0CD050EA410611
:106B580018BF52EA4306D1D181EA030101F000418E
:106B68004FF0000070BD50EA410606BF10461946B6
:106B780052EA430619D094EA0C0F02D150EA0136C2
:106B880013D195EA0C0F05D152EA03361CBF104603
:106B980019460AD181EA030101F0004141F0FE41A2
:106BA80041F470014FF0000070BD41F0FE4141F426
:106BB800780170BD70B54FF0FF0C4CF4E06C1CEA26
:106BC80011541DBF1CEA135594EA0C0F95EA0C0FDB
:106BD80000F0A7F8A4EB050481EA030E52EA033596
:106BE8004FEA013100F088804FEA03334FF08055B7
:106BF80045EA131343EA12634FEA022245EA1115E4
:106C080045EA10654FEA00260EF000419D4208BF94
:106C1800964244F1FD0404F5407402D25B084FEA41
:106C28003202B61A65EB03055B084FEA32024FF4ED
:106C380080104FF4002CB6EB020E75EB030E22BF4A
:106C4800B61A754640EA0C005B084FEA3202B6EB0A
:106C5800020E75EB030E22BFB61A754640EA5C00B9
:106C68005B084FEA3202B6EB020E75EB030E22BF49
:106C7800B61A754640EA9C005B084FEA3202B6EB4A
:106C8800020E75EB030E22BFB61A754640EADC0009
:106C980055EA060E18D04FEA051545EA16754FEA6B
:106CA80006164FEAC30343EA52734FEAC2025FEA89
:106CB8001C1CC0D111F4801F0BD141EA00014FF018
:106CC80000004FF0004CB6E711F4801F04BF0143E9
:106CD8000020B4F1FD0C88BFBCF5E06F3FF6AFAE05
:106CE800B5EB030C04BFB6EB020C5FEA500C50F195
:106CF800000041EB045170BD0EF0004E4EEA113118
:106D080014EB5C04C2BFD4EB0C0541EA045170BD1E
:106D180041F480114FF0000E013C90E645EA060E62
:106D28008DE60CEA135594EA0C0F08BF95EA0C0F90
:106D38003FF43BAF94EA0C0F0AD150EA01347FF4D8
:106D480034AF95EA0C0F7FF425AF104619462CE7AF
:106D580095EA0C0F06D152EA03353FF4FDAE104612
:106D6800194622E750EA410618BF52EA43067FF463
:106D7800C5AE50EA41047FF40DAF52EA43057FF4F3
:106D8800EBAE12E74FF0FF3C06E000BF4FF0010CFE
:106D980002E000BF4FF0010C4DF804CD4FEA410C62
:106DA8007FEA6C5C4FEA430C18BF7FEA6C5C1BD02F
:106DB80001B050EA410C0CBF52EA430C91EA030FB0
:106DC80002BF90EA020F0020704710F1000F91EA0D
:106DD800030F58BF994208BF90422CBFD8176FEADB
:106DE800E37040F0010070474FEA410C7FEA6C5CA9
:106DF80002D150EA013C07D14FEA430C7FEA6C5CB0
:106E0800D6D152EA033CD3D05DF8040B704700BFDB
:106E18008446104662468C461946634600E000BF29
:106E280001B5FFF7B7FF002848BF10F1000F01BDFB
:106E38004DF808EDFFF7F4FF0CBF012000205DF8C6
:106E480008FB00BF4DF808EDFFF7EAFF34BF01204B
:106E580000205DF808FB00BF4DF808EDFFF7E0FFE4
:106E680094BF012000205DF808FB00BF4DF808ED35
:106E7800FFF7CEFF94BF012000205DF808FB00BF9C
:106E88004DF808EDFFF7C4FF34BF012000205DF87E
:106E980008FB00BF4FEA410C7FEA6C5C02D150EA64
:106EA800013C0AD14FEA430C7FEA6C5C02D152EAFA
:106EB800033C02D14FF0000070474FF001007047CB
:106EC8004FEA410212F5001215D211D56FF478730A
:106ED800B3EB625212D94FEAC12343F0004343EAAD
:106EE800505311F0004F23FA02F018BF4042704788
:106EF8004FF00000704750EA013005D111F0004012
:106F080008BF6FF0004070474FF00000704700BFA7
:106F18004A0011D212F5001211D20DD56FF4787310
:106F2800B3EB62520ED44FEAC12343F0004343EA65
:106F3800505323FA02F070474FF00000704750EAB0
:106F4800013002D14FF0FF3070474FF0000070471A
:106F58004FEA4102B2F1E04324BFB3F5001CDCF173
:106F6800FE5C0DD901F0004C4FEAC0024CEA5070AB
:106F7800B2F1004F40EB830008BF20F001007047DA
:106F880011F0804F21D113F13872BCBF01F00040DD
:106F9800704741F480114FEA5252C2F11802C2F10F
:106FA800200C10FA0CF320FA02F018BF40F0010090
:106FB8004FEAC1234FEAD32303FA0CFC40EA0C0042
:106FC80023FA02F34FEA4303CCE77FEA625307D17F
:106FD80050EA01331EBF4FF0FE4040F440007047B6
:106FE80001F0004040F0FE4040F40000704700BF50
:106FF80010B5054C13462CB10A4601460220AFF3E2
:10700800008010BD204610BD0000000000487047F9
:107018006CE2032010B5431E0A44914204D011F8D3
:10702800014B03F8014FF8E710BD024403469342B1
:1070380002D003F8011BFAE77047000038B5124B7D
:107048001C68A36B0546D3B91820FEF787FA43F2EC
:107058000E33A06303804AF6CD33438041F23423D4
:1070680083804EF26D63C3804DF6EC630381052384
:1070780043810B23838101220023C0E90423A36BEE
:1070880000221D615A6138BD68E2032010F8012B07
:1070980011F8013B012A28BF9A42F7D0D01A70474D
:1070A800034611F8012B03F8012B002AF9D1704788
:1070B800034613F8012B002AFBD1181A0138704730
:1070C80030B582B1451E013915F8013F11F8014F5D
:1070D800A34206D1EC431444E04201D0002BF3D183
:1070E8001C46181B30BD104630BD70B504460D4611
:1070F80045EC104B164601F01BFC51EC100B7EB111
:10710800C5F30A53C3F16B03002B09DD1B0503F11B
:107118007F55002405F5401522462B46FFF720FC35
:1071280070BD0000000000002DE9F04F9DB0002365
:1071380002900C46139218934FF0000A4FF0000B80
:107148001791179B1A780D2A05D8092A13D2002AF5
:1071580000F0AC8112E02B2A04D02D2A04D0202A7A
:107168000CD108E0002200E001220C925A1C179270
:107178005B782BB99AE101331793E2E700230C936C
:10718800179D2B78302B5CD16B78582B01D0782B3E
:107198004CD10C9B019318AB0093A94A029819ABE8
:1071A80017A900F02CFE10F00706044600F08785AA
:1071B800062E05D10135002317950C9300F07FBDED
:1071C800189A3AB135211AA801F09FFC189902982B
:1071D80001F01CF9062E22D8DFE806F0040D081885
:1071E8001D0D04004FF0000BDA4618E0DDF868A02A
:1071F800DDF86CB013E01B9B199ADDF868A023F446
:10720800801302F2334243EA025B08E0DFF834B24B
:107218004FF0000A03E06FF0004B4FF0FF3A2107F0
:1072280040F14D854BF0004B00F049BD179B5A1CAF
:1072380017925B78302BF9D0002B00F040850123A2
:1072480000E000234FF000080693179B0793CDF842
:107258001480CDF810800A22179D2E78A6F13003ED
:10726800D9B209290ED804990829DDBF059902FB6E
:107278000133059302FB0838049B0135013304935D
:107288001795E9E70298FFF7C1FE07680298FFF72C
:10729800BDFE0068FFF70CFF394602462846FFF797
:1072A8000FFF074628B100203346049D02460146D9
:1072B80057E00298FFF7AAFE0068FFF7F9FE179B50
:1072C8001A181792049A1B5C002A42D11046302BD8
:1072D80005D1179B5A1C179201305B78F7E7A3F189
:1072E8003102082A43D8179A079202460020054619
:1072F800303B00F1010126D00A4405EB000C294679
:107308000A2661450ED0013101F1FF3EBEF1080F9A
:1073180003DC059F77430597F3E71029D8BF06FBE1
:1073280008F8EEE72844082800F1010505DC05986F
:107338000A2101FB0033059304E0102DDCBF0A216C
:1073480001FB08380021179B581C17905B780846EA
:1073580002E0049D38463A46A3F130010929C7D90D
:107368000121652B01D0452B51D16DB904E0652B66
:1073780040F0B3840022012128B9069B002B00F0BD
:107388009580054600E00025179C631C17936378D9
:107398002B2B06D02D2B02D00026039606E00123C6
:1073A80000E000230393A31C1793A378A3F13006EE
:1073B800092E2BD8302B04D1179B5E1C17965B78AF
:1073C800F8E7A3F13106082E21D8A3F1300E179B58
:1073D8004FF00A0C1F46179B5E1C17965B78A3F1AB
:1073E8003009B9F1090F04D80CFB0E3EAEF1300E8E
:1073F800F1E7F61B082E44F61F6902DCF145A8BF29
:10740800F146039E2EB1C9F1000902E017944FF02E
:107418000009002D53D1002840F05184069A002A13
:1074280040F04D84002941D14E2B20D002DC492B5D
:107438000AD03BE0692B07D06E2B18D036E000BF8E
:1074480010900D000000F07FA84917A800F008FF71
:1074580060B3179BA649013B17A8179300F000FFDC
:1074680010B9179B01331793DFF8A0B21AE0A149AE
:1074780017A800F0F5FEC8B1179B1B78282B0FD171
:107488001AAA9D4917A800F0FEFE052808D11B9BE3
:10749800DDF868A043F0FF4B4BF4E00B00F00FBCA5
:1074A800DFF86CB24FF0000A00F009BC139B179488
:1074B800002B00F00F8400230C9300F002BC049B07
:1074C8000598002B08BF2B46102D2C46C2EB090946
:1074D800A8BF10240493FFF7CDF9092C82468B46E8
:1074E80013DD864B03EBC40353E91223FFF738FA85
:1074F800064640460F46FFF7BDF902460B463046A2
:107508003946FFF77BF882468B460F2D36DCB9F1FA
:10751800000F00F0D48324DDB9F1160F07DC774D96
:1075280005EBC90952465B46D9E9000114E0C5F1EB
:107538002503994522DC714CC5F10F0504EBC50103
:10754800C5EB090552465B46D1E9000104EBC504C9
:10755800FFF706FAD4E90023FFF702FA82468B46C2
:10756800ADE319F1160F09DB644DA5EBC909D9E99B
:10757800002350465946FFF71DFBEFE72C1B4C44F0
:10758800002C57DD14F00F010AD05C4B03EBC1014E
:1075980052465B46D1E90001FFF7E2F982468B4685
:1075A80034F00F0400F0B880B4F59A7F0BDD0024A6
:1075B800254605940494029ADFF850B122231360FB
:1075C8004FF0000A87E14E4E0023241150465946D9
:1075D80098463746012C0BDDE20704D5D6E900238F
:1075E800FFF7BEF9012308F1010864100836F1E736
:1075F8000BB182468B46ABF1547B07EBC80752466A
:107608005B46D7E90001FFF7ABF921F000438B4651
:107618000A461B0D3B491B058B428246C7D8A1F57C
:1076280080118B4286BFDFF8ECB04FF0FF3A02F1D1
:10763800547B71E070D0644214F00F020AD02F4BD3
:1076480003EBC20350465946D3E90023FFF7B2FAC9
:1076580082468B4624115FD01F2C04DD002425466A
:107668000594049430E114F0100F0CBF00236A2332
:10767800254E0393504659460023002C09DDE207A6
:1076880004D5D6E90023FFF76BF901236410083607
:10769800F3E70BB182468B46039BEBB1CBF30A535E
:1076A800C3F16B03002B594616DD1F2B0EDD342B5F
:1076B800DEBF203B4FF0FF3202FA03F34FF0000A1F
:1076C800CCBF4FF05C7B03EA010B05E04FF0FF32C3
:1076D80002FA03F303EA0A0A002200235046594635
:1076E800FFF7A6FB0028B9D118E000BF9B8D0D005D
:1076F80038900D00918D0D0024900D0068900D00BC
:1077080030910D000000A07C40900D000000F07F3B
:107718000000F8FFFFFFEF7F00230393059B009312
:10772800049A079902982B4600F0C2FE059000289B
:107738003FF43DAFB9F1000FC9F10003A8BF002322
:107748000D93002429EAE97312932546059B0298B4
:10775800596800F026FE049000283FF42CAF059BE2
:107768001A69023203F10C0192000C30FFF752FC47
:107778001AAA19A94BEC10AB0298CDE908AB01F095
:107788004CF9189000283FF416AF0121029800F038
:107798001AFF054600283FF40EAF199B03991A9E5D
:1077A800002BADBF0D9A129ADDF8348002EB030866
:1077B800B8BFD21AA3EB01033344B549A8BF129A44
:1077C800013B8B42C6F1360680F28A80C91A1F290E
:1077D800C8BFB04F4FF00109D4BF09FA01F3FF1A2F
:1077E800A6EB0106D9BF0693002709FA07F7CDF8DB
:1077F800189008EB0609039BC84516441E444346E7
:10780800A8BF4B46B342A8BF3346002BC2BFC3EB49
:107818000909F61AC3EB08080D9B002B64D1B9F1CE
:10782800000F7ADC129B002B40F08180002E00F3C1
:107838008880B8F1000F00F38E80049A1899029896
:1078480001F017F8044600283FF4B5AEC368079363
:107858000023C360294600F0F0FF002880F28980E9
:10786800079B002B40F00482BAF1000F40F0008221
:10787800CBF31303002B40F0FB812BF000431B0DCF
:107888001B05B3F1D66F40F2F3816369002B6CD00E
:1078980021460122029800F07FFF2946044600F0A5
:1078A800CCFF002840F3E4812BF00043039A1B0D22
:1078B8001B05002A00F08C80B3F1D66F00F3888096
:1078C800B3F15C7F00F3D681029A22234FF0000ABD
:1078D8004FF0000B1360059B002B40F0DC81EEE1BC
:1078E80001230027069384E729461A46029800F0E8
:1078F80005FF054600283FF45EAE0146189A029837
:1079080000F06AFE079000283FF455AE18990298D7
:1079180000F07CFD079B189381E74A461899029866
:1079280000F03AFF189000287FF47CAF43E6129AE3
:107938000499029800F0E2FE049000287FF476AFE4
:1079480039E632460499029800F026FF0490002890
:107958007FF46FAF2FE629464246029800F01CFFDD
:10796800054600287FF469AF25E62369012B8FDCE3
:107978007EE161D1079ACBF3130322B346498B42C8
:107988005A462ED1039B514663B1444B1340B3F181
:10799800D46F07D81B0DC3F16B034FF0FF3000FA0B
:1079A80003F301E04FF0FF338B421AD13C498A427E
:1079B80002D101333FF4FFAD384B134003F5801B70
:1079C8004FF0000A54E163B9BAF1000F09D16BE72F
:1079D800A3F580136FEA135B6FEA0B5B4FF0FF3A76
:1079E80046E117B117EA0B0F02E0069B13EA0A0FEC
:1079F80000F03E81079B039A5046594653B1FFF762
:107A080074FB02460B46DDE90801FEF7F7FD8246E6
:107A18008B462DE1FFF769FB02460B46DDE90801BD
:107A2800FEF7EAFD0022002382468B46FFF700FAA4
:107A380000287FF449AF1BE12946204601F03BF8B6
:107A480057EC106B00224FF0804310EE100A3946B5
:107A5800FFF702FA002842D0079B23B14FF0000835
:107A6800DFF8409011E0BAF1000F03D1CBF3130314
:107A78003BB91BE0BAF1010F03D1BBF1000F3FF492
:107A880023AFDFF824904FF000080026054F39E0B7
:107A980002FCFFFFE2FBFFFFFFFF0F000000F07F8B
:107AA800FFFFEF7F0000F03F0000F0BF0022984B7F
:107AB80030463946FFF7C6F940B930463946002204
:107AC800944BFEF74DFF06460F4601E0914F002606
:107AD80007F1004314961593DDE9148912E08D4BE4
:107AE800304639460022FEF73BFF079B06460F4605
:107AF80023B901F100430E900F9301E0CDE90E6721
:107B0800DDE90E892BF000431B0D1B050693069A31
:107B1800814B9A422BD1DDE90823ABF1547B4BEC26
:107B280010ABCDE90A2300F003FF404653EC102BBD
:107B38004946FEF715FF52465B46FEF75FFD21F00A
:107B480000431B0D754A1B05934282460CD9744BA2
:107B58000B9A9A4203D10A9B01333FF42CADDFF80C
:107B6800C0B14FF0FF3A72E001F1547B38E0039B5B
:107B780033B3069BB3F1D46F22D85DA3D3E90023B6
:107B880030463946FFF768F9A8B139463046FFF75D
:107B9800BFF9002808BF0120FEF76CFE079B0646C8
:107BA8000F4623B901F100431090119301E0CDE98C
:107BB8001067DDE91089069A09F1D663C2EB03095B
:107BC8009DED080B00F0B4FE404653EC102B4946DF
:107BD800FEF7C6FEDDE90823FEF710FD82468B4658
:107BE800039BA3BB2BF000431B0D069A1B059A426F
:107BF800D8462CD139463046FFF762F9FEF74AFEDF
:107C08000B46024639463046FEF7F6FC079B064609
:107C18000F462BB9BAF1000F02D1CBF3130383B18E
:107C280035A3D3E9002330463946FFF70BF900287E
:107C380031D133A3D3E9002330463946FFF720F981
:107C480004E031A3D3E90023FFF7FCF818BB189927
:107C5800029800F0DBFB0499029800F0D7FB294654
:107C6800029800F0D3FB2146029800F0CFFB6DE5A7
:107C7800039B83B12B4B0B9300230A935046594621
:107C8800DDE90A23FEF76CFE82468B4619B910B966
:107C9800029A222313601899029800F0B7FB0499FE
:107CA800029800F0B3FB2946029800F0AFFB059953
:107CB800029800F0ABFB2146029800F0A7FB139B4B
:107CC80013B1139A179B13600C9B1BB152460BF10F
:107CD800004307E052465B4604E000252A4601219E
:107CE800FFF741BB43EC102B1DB0BDE8F08F00BF80
:107CF8000000C0FFFFFFDF419535A094FFFFDF3F85
:107D080035E5AF350000E03F9535A094FFFFCF3F44
:107D18000000F03F0000E03F0000E07FFFFF9F7C95
:107D2800FFFFEF7F0000503938B50E4B0A46014679
:107D38001868FFF7F9F955EC104B10EE102A2B468E
:107D480010EE100A2946FFF7A5F820B10020BDE87B
:107D5800384000F025BF20462946FFF7F9F800EE25
:107D6800100A38BD68E20320F0B506694B11B3422A
:107D780000F1140527DA11F01F0105EB860605EB63
:107D8800830201D1294616E0141D55F82320C1F1BC
:107D9800200ECA402B46B44209D2276807FA0EF7CC
:107DA8003A4343F8042B54F8042BCA40F3E71A600B
:107DB80052B1043308E0B2420B4605D252F8043BF4
:107DC80041F8043BF7E72B465B1B9B10036103B9A3
:107DD8004361F0BDA0F13003092B01D820380AE037
:107DE800A0F16103052B01D8473804E0A0F1410355
:107DF800052B02D82738C0B27047002070472DE9FC
:107E0800F04F8BB08A46904606930290FFF7FEF833
:107E1800036803931846FFF74BF9039B019003444B
:107E28004FF0000B13F8013C0793DAF800300233E7
:107E38001F4613F8010B302802D10BF1010BF7E7AD
:107E4800FFF7C8FF0446E0B9019A03993846FFF7DF
:107E580037F9002834D1019BF85CFE18FFF7BAFF08
:107E680080B33346187830281F4603F10103F9D050
:107E7800FFF7B0FFB0FA80F56D0934464FF0010BFB
:107E880001E000252C463A46164601323078FFF7C5
:107E9800A1FF0028F8D1019A03993046FFF710F99D
:107EA80050B954B9019BF41822461646013230786D
:107EB800FFF790FF0028F8D134B1A41BA40003E019
:107EC8003E4600E0044601253378502B01D0702B44
:107ED8002AD173782B2B08D02D2B03D0711C4FF08F
:107EE800000905E04FF0010901E04FF00009B11C5D
:107EF8000878FFF76FFF431EDBB2182B14D8A0F1E8
:107F0800100211F8010FFFF765FF431EDBB2182BB3
:107F180004D80A2303FB0202103AF2E7B9F1000F72
:107F280000D05242144400E03146CAF800102DB186
:107F3800BBF1000F14BF002006207CE1F31B013BBE
:107F48002946072B02DD01315B10FAE7029800F0A1
:107F580028FA019B00F1140A4FF00009C3F101034C
:107F68000546CDF810A0CB460893B7422FD2731E12
:107F78000593079A16F8013C93420BD0BBF1200FEA
:107F880016D1049BC3F8009004334FF00009049302
:107F9800CB460DE0059B089A13449F42EED818463D
:107FA800019A03990993FFF78BF8099B68B1E5E7F4
:107FB80016F8010CFFF70EFF00F00F0000FA0BF0A7
:107FC800059B49EA00090BF1040B1E46CDE704980E
:107FD80040F8049BCAEB000080102861470148461E
:107FE80000F0A4FAD8F80060381AB04226DD871BE2
:107FF8003946284600F0A3FDC8B17B1E591103F08D
:108008001F024FF001095AF8211009FA02F20A4238
:108018000ED04B4502DC4FF0020909E0B91E284694
:1080280000F08DFD0028F6D04FF0030900E08146EE
:1080380039462846FFF798FE3C440CE009DA371A1F
:1080480029463A46029800F0A7FBE41B054600F1D2
:10805800140A4FF00009D8F808309C4208DD02984D
:10806800294600F0D3F9149A00231360A320E2E014
:10807800D8F80400844253DA041BA6422EDCD8F850
:108088000C30022B1AD0032B1CD0012B1DD1A64279
:108098001BD1012E0BDC069AD8F80430136001239B
:1080A8002B61CAF80030149B62201D60C3E0711E6A
:1080B800284600F044FD0028EDD106E0159B002B72
:1080C800E9D002E0159B002BE5D10298294600F083
:1080D8009DF9149A002313605020ACE0671EB9F193
:1080E800000F06D13FB13946284600F028FD8146E9
:1080F80001E04FF001097A11012307F01F0703FA85
:1081080007F75AF8223021461F42284618BF49F07F
:108118000209361BFFF728FE0227D8F8044000E0C2
:108128000127B9F1000F00F08180D8F80C30022B3C
:108138000ED0032B10D0012B76D119F0020F73D07B
:10814800DAF8000049EA000919F0010F07D16BE0DD
:10815800159BC3F101031593159B002B64D0D5F82B
:1081680010A005F114034FEA8A0903EB0901002066
:108178001A68B2F1FF3F02D001321A6020E043F8DA
:10818800040B9942F4D8AB689A4512DB69680298E7
:10819800013100F006F92A69023205F10C01834623
:1081A80092000C30FEF736FF2946029800F02EF9AF
:1081B8005D462B695A1C05EB83032A6101225A612B
:1081C800022F05F1140211D1D8F80030013B9E426C
:1081D80027D17111012306F01F0603FA06F652F89B
:1081E80021301E420CBF022701271AE02B699A454D
:1081F8000ADA01212846FFF7B7FDD8F8083001341C
:108208009C423FF72CAF0BE016F01F0608D09144B4
:10821800C6F1200659F8040C00F088F9B042E8DBF2
:10822800012747F0200701E047F01007149B1D6065
:10823800069B38461C600BB0BDE8F08FC2F10802FF
:10824800920070B5C2F120064368056803FA06F487
:108258002C43D340046040F8043F8842F4D370BDF7
:1082680030B5036811F8014B01334CB11A78A2F10B
:108278004105192D98BF2032A242F3D0002030BD0D
:108288000360012030BD2DE9F04F0B68D0F800B035
:108298005E1102EB860613F01F0385B018BF043683
:1082A800351F174600228246019346F8042CA8463B
:1082B8002C46009291461BF8011F00293CD0084625
:1082C80003920291FFF786FD039A00BB02992029C9
:1082D80016D8009B9945EEDD444505D2072A03DCF4
:1082E80041462046FFF7AAFFBC4223D90023A4F148
:1082F800040844F8043CCDF8009044461A46DAE7EE
:10830800292948D10BF10103CAF8003014E00132E1
:10831800082A09F1010906DDBC42CCD9002344F83A
:10832800043C0122043C216800F00F0040EA0110DF
:108338002060C0E70822BEE7B9F1000F2BD0444502
:1083480005D2072A03DC41462046FFF777FFBC42E7
:108358000CD93B4654F8042B43F8042BA542F9D218
:10836800002243F8042B9D42FBD20BE0019B4BB14A
:10837800C3F120024FF0FF33D34056F8042C1340CA
:1083880046F8043C2B6843B9BD4202D101232B6057
:1083980003E0043DF6E7042000E0052005B0BDE851
:1083A800F08F70B5456A04460E463DB91020FDF7BA
:1083B800D5F86062456085600560C560656AEB68F0
:1083C80043B1636ADB6853F8260078B1026843F862
:1083D800262017E021220421204600F0D2FB636A00
:1083E800E860DB68002BECD1002070BD012101FAA8
:1083F80006F56A1D9200204600F0C3FB0028F3D062
:108408004660856000230361C36070BD70B5446A2F
:1084180006460D463CB91020FDF7A0F8706244608E
:1084280084600460C4603DB1736A6A68DB6853F8AD
:108438002210296043F8225070BD2DE9F0410D69E2
:108448001F4606460C4601F1140E0023DEF8000014
:1084580081B202FB01710F0C000C02FB007089B2A3
:10846800013301EB00419D424FEA10474EF8041BCF
:10847800ECDCD7B1A3689D4212DB6168304601315C
:10848800FFF78FFF2269023204F10C018046920047
:108498000C30FEF7BFFD21463046FFF7B7FF4446D4
:1084A80004EB850301355F6125612046BDE8F08155
:1084B8002DE9F8430C4615461F460922083306469F
:1084C80093FBF2F3002101229A4202DA52000131B1
:1084D800FAE73046FFF765FF089B4361092D4FF027
:1084E8000103036111DD04F10908C1462C4419F8A0
:1084F800013B0146303B0A223046FFF79EFFA1456B
:10850800F5D108EB0504083C01E00A3409252D1BC8
:1085180063199F4208DD14F8013B0146303B0A22EB
:108528003046FFF78AFFF3E7BDE8F883030C1B0426
:1085380013B90004102300E0002310F07F4F04BF9C
:108548000002083310F0704F04BF0001043310F02C
:10855800404F04BF80000233002803DB420003D5EC
:10856800581C70471846704720207047036813F05E
:1085780007020BD0D90722D49A074BBF5B089B0888
:10858800036003604CBF01200220704799B209B90B
:108598001B0C102213F0FF0F04BF1B0A0832190727
:1085A80004BF1B090432990704BF9B080232D9078C
:1085B80002D45B0805D001320360104670470020E2
:1085C80070472020704710B50C460121FFF7E9FEDF
:1085D80001224461026110BD2DE9F74F14460A6972
:1085E80023699A42B8BF0B468846BCBFA0461C46C2
:1085F800D8F81070D4F81090D8F80830D8F80410CB
:1086080007EB09069E42C8BF0131FFF7CAFE00F119
:10861800140505EB860C2B460022634502D243F86D
:10862800042BFAE704F1140208F1140102EB8903A0
:1086380001EB87070093009B0192934257D9B2F848
:1086480000B0BBF1000F23D08946AE464FF00008BA
:1086580059F8044BBEF800A0A3B20BFB03A34FEAE2
:10866800144ADEF8004043444FEA14480BFB0A84DE
:1086780004EB1344F2469BB243EA04434F454FEAE6
:1086880014484AF8043B01D9D646E1E7CEF80480FD
:10869800019BB3F802A00432BAF1000F21D02B6875
:1086A8002C4689464FF00008B9F800E0B4F802B04B
:1086B8000AFB0EBEF044A3469BB243EA08434BF8BC
:1086C800043B59F8043BB4F804E01B0C0AFB03E331
:1086D80003EB18434F454FEA134801D95C46E3E7DB
:1086E80063600435A7E75CF8043D13B9013E002E2A
:1086F800F9DC066103B0BDE8F08F00002DE9F8430E
:10870800154612F0030206460F4607D0013A214CDF
:10871800002354F82220FFF790FE0746AD1036D00C
:10872800746A3CB91020FCF719FF706244608460D9
:108738000460C460D6F82480D8F808404CB940F2E8
:1087480071213046FFF73FFF0023C8F808000446B0
:1087580003604FF00008EB070AD539462246304639
:10876800FFF73AFF394681463046FFF74FFE4F463E
:108778006D100CD0206808B10446ECE7224621466B
:108788003046FFF729FF2060C0F80080F4E738463C
:10879800BDE8F88358910D002DE9F0470C464FEAE3
:1087A800621A26694968A368564407469146751CAB
:1087B800AB4202DA01315B00FAE73846FFF7F1FD18
:1087C8000023804600F114011A46534503DA41F8A4
:1087D80023200133F9E72AEAEA73206901EB8303CE
:1087E80019F01F0904F1140101EB800E14D0C9F12E
:1087F800200C0022086800FA09F002439A4643F860
:10880800042B51F8042B8E4522FA0CF2F2D8CAF840
:10881800042042B1B51C06E0043B51F8042B43F890
:10882800042F8E45F9D8013D3846C8F81050214626
:10883800FFF7ECFD4046BDE8F08703690A699B1A1B
:1088480010B511D192001430143183180A4453F82A
:10885800044D52F8041D8C4202D007D3012010BDEC
:108868009842F4D3002010BD184610BD4FF0FF30D9
:1088780010BD2DE9F8430C4607461146204615461B
:10888800FFF7DBFF061E08D131463846FFF789FDA2
:10889800012303614661BDE8F883BCBF23462C462B
:1088A80038466168BABF1D4601260026FFF779FDE4
:1088B8002B69C660266905F11409143404EB860790
:1088C80009EB830800F114054FF0000C54F8043B41
:1088D80059F8042B1CFA83F11FFA82FE120CCEEB16
:1088E8000101C2EB134303EB214389B24FEA234C46
:1088F800C84541EA0343A64645F8043BE6D8BE45C9
:108908000ED25EF8041B1CFA81F2131403EB114318
:1089180092B242EA03424FEA234C45F8042BEEE7B1
:1089280055F8043D0BB9013EFAE70661BDE8F88346
:10893800124B10EE902A1A40A2F15073002B02DD60
:108948000020194617E05B421B15132B4FF000005F
:108958004FF0000104DC4FF4002242FA03F10AE070
:10896800143B1E2B4FF00102DABFC3F11F0302FABA
:1089780003F31346184641EC100B70470000F07FD4
:10898800F8B5056900F1140606EB85052F1F55F8A3
:10899800044C2046FFF7CAFDC0F120030A280B60EB
:1089A80014DCC0F10B0E24FA0EF1BE4241F07F53E5
:1089B80034BF55F8081C0021153004FA00F021FADC
:1089C8000EF143F4401340EA010223E0BE423ABFED
:1089D800A5F1080755F8081C00210B3815D084406C
:1089E800C0F1200544F07F5444F44014B74221FA02
:1089F80005FE44EA0E038CBF57F8044C002401FA24
:108A080000F0EC4040EA040204E044F07F5343F4F1
:108A180040130A4643EC102BF8BD2DE9F7430E46E8
:108A2800012159EC108B1546FFF7BBFCC9F30A541A
:108A38000746C9F313030CB143F480130193B8F14B
:108A4800000F19D002A840F8088DFFF78FFD009B92
:108A580048B1019AC0F1200102FA01F10B43C2406A
:108A68007B61019200E07B61019BBB61002B14BF1D
:108A780002210121396107E001A8FFF777FD019B79
:108A88007B6101213961203034B1A4F233440444BC
:108A98003460C0F1350009E007EB8103A0F23240F1
:108AA80030601869FFF742FDC0EB41102860384676
:108AB80003B0BDE8F0832DE9F7438846694681464F
:108AC800FFF75EFF01A9404655EC104BFFF758FF32
:108AD800D9F81030D8F810209A1A9DE80A00C91A57
:108AE80057EC106B01EB4213002BCCBF05EB035581
:108AF800A7EB035732463B4620462946FEF75AF86D
:108B080041EC100B03B0BDE8F083013910B54911F1
:108B18001469013102F1140300EB810103EB8404B1
:108B2800A342024604D253F8042B40F8042BF7E77B
:108B380000238A4202D242F8043BFAE710BD00F152
:108B4800140200694B11984210B50CDB0CDD11F0D2
:108B58001F0109D052F8234024FA01F000FA01F16C
:108B68008C420CD100E0034602EB8303934204D904
:108B780053F8041D0029F9D001E0002010BD0120A0
:108B880010BD38B502FB01F42146FCF70FFD054680
:108B980018B122460021FEF748FA284638BD0000E1
:108BA8009FED010A704700BF0000C07F1D400D0007
:108BB80059400D0085400D0089400D00000000005F
:108BC8000000000000000000E5400D00F9400D0025
:108BD80000000000000000000D410D0021410D00C3
:108BE8004445425547202D20454E444E4F44453A72
:108BF800202A2A2A436F6E6E656374696E67207433
:108C08006F204D455348206E6574776F726B2A2A22
:108C180000534954455F310054656D7000576569CC
:108C280067687400534954455F3200534954455F9F
:108C38003300534954455F3400454E44504F494E24
:108C4800543A204465766963652069443A20004EA9
:108C58004F44453A00425400425700475400475792
:108C6800005754005757005954005957004445427B
:108C780055473A202D20454E444E4F44453A204D05
:108C8800455348204A534F4E204D4553534147457D
:108C98003A0D0A2025730050617273696E67204689
:108CA80041494C45442121210050617273696E6726
:108CB8002050415353454421212100526574726963
:108CC800657665642066726F6D204A534F4E3A2070
:108CD8002000000000000000000000000D470D000B
:108CE8000F470D0000000000000000001D470D00A8
:108CF80039470D00000000000000000085470D0006
:108D080099470D00256400256C75002530347800DE
:108D18005C752530345800747275650066616C7333
:108D28006500252E2A6600256600252E2A6C660019
:108D3800256C660000000000000000004D470D0093
:108D480071470D00000000000000000023560D00D0
:108D580019560D000F560D0005560D00F9550D005A
:108D6800ED550D00E1550D00D9550D00CF550D00FD
:108D7800C5550D00C9610D0000000000000000008D
:108D880041560D0043560D006E616E006F76660009
:108D98002E00696E66006C6E00666E00636F646517
:108DA8000064657461696C000D0A00253031307506
:108DB80020005D20002C200028293A2000205B009C
:108DC800636F6465203D20002569006465746169EE
:108DD8006C73203D2000626175640053657269619F
:108DE8006C0053657269616C31007479706500704C
:108DF8006172616D00636D6400696400686E64008F
:108E08007374726D0066696C74006C766C006164D2
:108E18006448616E646C65720072656D6F76654852
:108E2800616E646C657200656E756D48616E646C28
:108E3800657273004A534F4E53747265616D4C6F7F
:108E48006748616E646C657200617070006E6F6E69
:108E58006500747261636500696E666F00776172A0
:108E68006E006572726F720070616E696300616C8A
:108E78006C005A00252B3033643A253032750025B2
:108E8800592D256D2D25645425483A254D3A2553ED
:108E9800257A0061736374696D6500000000000045
:108EA80000000000175D0D00095D0D000B5D0D0051
:108EB8000000000000000000F15D0D00355E0D00AF
:108EC8000F5E0D00A9580D00095E0D00F35D0D0041
:108ED800FB5D0D002F5E0D00035E0D00ED5D0D00C6
:108EE8000000000000000000D55E0D00F95E0D00D6
:108EF800055F0D00A9580D00E15E0D00ED5E0D0047
:108F0800E75E0D00F35E0D00D75E0D00DB5E0D0021
:108F18000000000000000000A95F0D00F35F0D00D5
:108F2800CB5F0D00AB5F0D00D35F0D00DB5F0D0065
:108F3800E35F0D00EB5F0D00000000000000000083
:108F48008B600D0081600D0077600D006D600D0075
:108F580061600D0055600D0049600D0041600D0015
:108F680037600D002D600D00C9610D000000000084
:108F78000000000061610D006B610D0075610D005E
:108F88007F610D0089610D0095610D00A1610D00E3
:108F9800AD610D00B5610D00BF610D00C9610D0027
:108FA80000000000000000000000000000000000B9
:108FB80000000000000000000000000000000000A9
:108FC8000000000000000000000000000000000099
:108FD8000000000000000000000000000000000089
:108FE8000000000000000000000000000000000079
:108FF8000000000000000000000000000000000069
:109008004300504F5349580035000000CEFBFFFF86
:10901800CB03000001000000000000003400000045
:10902800CEFBFFFFCB0300000100000000000000A2
:10903800696E697479000000BC89D897B2D29C3CEB
:1090480033A7A8D523F649393DA7F444FD0FA53227
:109058009D978CCF08BA5B25436FAC6428066811CE
:10906800000000000000F03F000000000000244065
:1090780000000000000059400000000000408F4040
:10908800000000000088C34000000000006AF840AB
:109098000000000080842E4100000000D0126341CF
:1090A8000000000084D797410000000065CDCD4145
:1090B800000000205FA00242000000E87648374226
:1090C800000000A2941A6D42000040E59C30A242C4
:1090D8000000901EC4BCD64200003426F56B0C4339
:1090E8000080E03779C3414300A0D88557347643E0
:1090F80000C84E676DC1AB43003D9160E458E14341
:10910800408CB5781DAF154450EFE2D6E41A4B44B5
:1091180092D54D06CFF08044F64AE1C7022DB544FA
:10912800B49DD9794378EA440080E03779C3414354
:10913800176E05B5B5B89346F5F93FE9034F384DB5
:10914800321D30F94877825A3CBF737FDD4F157561
:1091580005000000190000007D000000E9420D0034
:10916800D5510D00D9510D002D560D0081560D0019
:10917800C55B0D00D55B0D00095C0D0015610D0088
:109188004D620D00D9620D0069630D00ED630D009D
:08919800B1640D0075650D00C6
:1091A000010101009B8E0D0000000000A88F0D0042
:1091B000C88F0D00E88F0D000000000000000000C7
:1091C000000000000000000008900D0000000000FA
:1091D000000000000000000000000000000000008F
:1091E000000000000000000000000000000000007F
:1091F000000000000000000000000000000000006F
:10920000000000000000000008E20320988D0D001F
:10921000B28D0D00B28D0D00B28D0D00B28D0D001E
:10922000B28D0D00B28D0D00B28D0D00B28D0D000E
:10923000B28D0D00FFFFFFFFFFFFFFFFFFFFFFFFEE
:04924000FFFF00002C
:10924400FFFFFFFF00000102030405060708090AE7
:109254000B0C0D0E0F101112131415161718191AE2
:089264001B1C1D1E1F20280029
:04926C0078563412EA
:04000003D0004018D1
:00000001FF
